{
  "contractName": "Lottery",
  "abi": [
    {
      "inputs": [],
      "stateMutability": "nonpayable",
      "type": "constructor"
    },
    {
      "inputs": [],
      "name": "manager",
      "outputs": [
        {
          "internalType": "address",
          "name": "",
          "type": "address"
        }
      ],
      "stateMutability": "view",
      "type": "function",
      "constant": true
    },
    {
      "inputs": [
        {
          "internalType": "uint256",
          "name": "",
          "type": "uint256"
        }
      ],
      "name": "players",
      "outputs": [
        {
          "internalType": "address payable",
          "name": "",
          "type": "address"
        }
      ],
      "stateMutability": "view",
      "type": "function",
      "constant": true
    },
    {
      "inputs": [],
      "name": "enter",
      "outputs": [],
      "stateMutability": "payable",
      "type": "function",
      "payable": true
    },
    {
      "inputs": [],
      "name": "getmanager",
      "outputs": [
        {
          "internalType": "address",
          "name": "",
          "type": "address"
        }
      ],
      "stateMutability": "view",
      "type": "function",
      "constant": true
    },
    {
      "inputs": [],
      "name": "getBalance",
      "outputs": [
        {
          "internalType": "uint256",
          "name": "",
          "type": "uint256"
        }
      ],
      "stateMutability": "view",
      "type": "function",
      "constant": true
    },
    {
      "inputs": [],
      "name": "pickWinner",
      "outputs": [],
      "stateMutability": "nonpayable",
      "type": "function"
    }
  ],
  "bytecode": "0x608060405234801561001057600080fd5b5033600160006101000a81548173ffffffffffffffffffffffffffffffffffffffff021916908373ffffffffffffffffffffffffffffffffffffffff160217905550610782806100616000396000f3fe6080604052600436106100555760003560e01c806312065fe01461005a578063481c6a75146100855780635d495aea146100b0578063e97dcb62146100c7578063f52294c3146100d1578063f71d96cb146100fc575b600080fd5b34801561006657600080fd5b5061006f610139565b60405161007c919061051f565b60405180910390f35b34801561009157600080fd5b5061009a61019b565b6040516100a7919061057b565b60405180910390f35b3480156100bc57600080fd5b506100c56101c1565b005b6100cf610344565b005b3480156100dd57600080fd5b506100e66103bc565b6040516100f3919061057b565b60405180910390f35b34801561010857600080fd5b50610123600480360381019061011e91906105c7565b6103e6565b6040516101309190610615565b60405180910390f35b6000600160009054906101000a900473ffffffffffffffffffffffffffffffffffffffff1673ffffffffffffffffffffffffffffffffffffffff163373ffffffffffffffffffffffffffffffffffffffff161461019557600080fd5b47905090565b600160009054906101000a900473ffffffffffffffffffffffffffffffffffffffff1681565b600160009054906101000a900473ffffffffffffffffffffffffffffffffffffffff1673ffffffffffffffffffffffffffffffffffffffff163373ffffffffffffffffffffffffffffffffffffffff161461021b57600080fd5b6003600080549050101561022e57600080fd5b6000610238610425565b90506000806000805490508361024e919061065f565b90506000818154811061026457610263610690565b5b9060005260206000200160009054906101000a900473ffffffffffffffffffffffffffffffffffffffff1691508173ffffffffffffffffffffffffffffffffffffffff166108fc6102b3610139565b9081150290604051600060405180830381858888f193505050501580156102de573d6000803e3d6000fd5b50600067ffffffffffffffff8111156102fa576102f96106bf565b5b6040519080825280602002602001820160405280156103285781602001602082028036833780820191505090505b506000908051906020019061033e92919061045f565b50505050565b662386f26fc10000341461035757600080fd5b6000339080600181540180825580915050600190039060005260206000200160009091909190916101000a81548173ffffffffffffffffffffffffffffffffffffffff021916908373ffffffffffffffffffffffffffffffffffffffff160217905550565b6000600160009054906101000a900473ffffffffffffffffffffffffffffffffffffffff16905090565b600081815481106103f657600080fd5b906000526020600020016000915054906101000a900473ffffffffffffffffffffffffffffffffffffffff1681565b600044426000805490506040516020016104419392919061070f565b6040516020818303038152906040528051906020012060001c905090565b8280548282559060005260206000209081019282156104d8579160200282015b828111156104d75782518260006101000a81548173ffffffffffffffffffffffffffffffffffffffff021916908373ffffffffffffffffffffffffffffffffffffffff1602179055509160200191906001019061047f565b5b5090506104e591906104e9565b5090565b5b808211156105025760008160009055506001016104ea565b5090565b6000819050919050565b61051981610506565b82525050565b60006020820190506105346000830184610510565b92915050565b600073ffffffffffffffffffffffffffffffffffffffff82169050919050565b60006105658261053a565b9050919050565b6105758161055a565b82525050565b6000602082019050610590600083018461056c565b92915050565b600080fd5b6105a481610506565b81146105af57600080fd5b50565b6000813590506105c18161059b565b92915050565b6000602082840312156105dd576105dc610596565b5b60006105eb848285016105b2565b91505092915050565b60006105ff8261053a565b9050919050565b61060f816105f4565b82525050565b600060208201905061062a6000830184610606565b92915050565b7f4e487b7100000000000000000000000000000000000000000000000000000000600052601260045260246000fd5b600061066a82610506565b915061067583610506565b92508261068557610684610630565b5b828206905092915050565b7f4e487b7100000000000000000000000000000000000000000000000000000000600052603260045260246000fd5b7f4e487b7100000000000000000000000000000000000000000000000000000000600052604160045260246000fd5b6000819050919050565b61070961070482610506565b6106ee565b82525050565b600061071b82866106f8565b60208201915061072b82856106f8565b60208201915061073b82846106f8565b60208201915081905094935050505056fea264697066735822122019d414d65234c1f9b89e902748a1fd93d01e4c500471457ad4760110a4ebfb1764736f6c634300080a0033",
  "immutableReferences": {},
  "source": "//SPDX-License-Identifier: GPL-3.0\n \npragma solidity >=0.5.0 <0.9.0;\n \ncontract Lottery{\n    \n    // declaring the state variables\n    address payable[] public players; //dynamic array of type address payable\n    address public manager; \n    \n    \n    // declaring the constructor\n    constructor(){\n        // initializing the owner to the address that deploys the contract\n        manager = msg.sender; \n    }\n    \n    // declaring the receive() function that is necessary to receive ETH\n    // receive () payable external{\n    //     // each player sends exactly 0.1 ETH \n    //     require(msg.value == 0.1 ether);\n    //     // appending the player to the players array\n    //     players.push(payable(msg.sender));\n    // }\n\n    function enter() public payable{\n        // each player sends exactly 0.1 ETH \n        require(msg.value == 0.01 ether);\n        // appending the player to the players array\n        players.push(payable(msg.sender));\n    }\n\n\n\n\n    function getmanager() public view returns(address){\n        return manager;\n    }\n    \n    // returning the contract's balance in wei\n    function getBalance() public view returns(uint){\n        // only the manager is allowed to call it\n        require(msg.sender == manager);\n        return address(this).balance;\n    }\n    \n    // helper function that returns a big random integer\n    function random() internal view returns(uint){\n       return uint(keccak256(abi.encodePacked(block.difficulty, block.timestamp, players.length)));\n    }\n    \n    \n    // selecting the winner\n    function pickWinner() public{\n        // only the manager can pick a winner if there are at least 3 players in the lottery\n        require(msg.sender == manager);\n        require (players.length >= 3);\n        \n        uint r = random();\n        address payable winner;\n        \n        // computing a random index of the array\n        uint index = r % players.length;\n    \n        winner = players[index]; // this is the winner\n        \n        // transferring the entire contract's balance to the winner\n        winner.transfer(getBalance());\n        \n        // resetting the lottery for the next round\n        players = new address payable[](0);\n    }\n \n}\n\n\n// refer: https://docs.morpheuslabs.io/docs/building-the-smart-contract-with-solidity-step-by-step",
  "sourcePath": "E:\\solidity_rehersal\\test_moonrabbit - Copy\\contracts\\Lottery.sol",
  "compiler": {
    "name": "solc",
    "version": "0.8.10+commit.fc410830.Emscripten.clang"
  },
  "schemaVersion": "3.4.3",
  "updatedAt": "2022-01-25T07:31:41.405Z",
  "networkType": "ethereum",
  "devdoc": {
    "kind": "dev",
    "methods": {},
    "version": 1
  },
  "userdoc": {
    "kind": "user",
    "methods": {},
    "version": 1
  }
}